:020000040800F2
:1000000000000220511C0008710900087309000853
:100010007509000877090008790900080000000048
:100020000000000000000000000000007B09000844
:100030007D090008000000007F0900088109000810
:10004000A11C0008A11C0008A11C0008A11C00089C
:10005000A11C0008A11C0008A11C0008A11C00088C
:10006000A11C0008A11C0008A11C0008A11C00087C
:10007000A11C0008A11C0008A11C0008A11C00086C
:10008000A11C0008A11C0008A11C0008A11C00085C
:10009000A11C0008A11C0008A11C0008A11C00084C
:1000A000A11C0008A11C0008A11C0008A11C00083C
:1000B000A11C0008A11C0008A11C0008A11C00082C
:1000C000A11C0008A11C0008A11C0008A11C00081C
:1000D000A11C0008A11C0008A11C0008A11C00080C
:1000E000A11C0008A11C000800000000A11C0008C1
:1000F000A11C0008A11C0008A11C0008A11C0008EC
:10010000A11C0008A11C0008A11C0008A11C0008DB
:10011000A11C0008A11C0008A11C0008A11C0008CB
:10012000A11C0008A11C0008A11C0008A11C0008BB
:10013000A11C0008A11C0008A11C0008A11C0008AB
:1001400000000000000000000000000000000000AF
:10015000A11C0008A11C0008A11C0008A11C00088B
:10016000A11C0008A11C0008A11C0008A11C00087B
:10017000A11C0008A11C0008A11C0008A11C00086B
:10018000A11C0008A11C0008A11C0008A11C00085B
:10019000A11C0008A11C0008A11C0008A11C00084B
:1001A000A11C0008A11C0008A11C0008A11C00083B
:1001B000A11C0008A11C0008A11C0008A11C00082B
:1001C000A11C0008A11C0008A11C0008A11C00081B
:1001D000A11C0008A11C0008A11C0008A11C00080B
:1001E000A11C0008A11C0008A11C0008A11C0008FB
:1001F000A11C0008A11C0008A11C0008A11C0008EB
:10020000A11C0008A11C0008A11C0008A11C0008DA
:10021000A11C0008A11C0008A11C0008A11C0008CA
:10022000A11C0008A11C0008A11C0008000000007F
:10023000A11C0008A11C000800000000A11C00086F
:10024000A11C0008A11C0008A11C0008A11C00089A
:10025000A11C0008A11C0008A11C0008A11C00088A
:10026000A11C0008A11C0008A11C0008A11C00087A
:10027000A11C0008A11C0008A11C0008000000002F
:10028000A11C0008A11C0008A11C0008000000001F
:1002900000000000A11C000810B5054C237833B9FC
:1002A000044B13B10448AFF300800123237010BD49
:1002B0003C04002000000000081E000808B5034BA5
:1002C0001BB103490348AFF3008008BD00000000E4
:1002D00040040020081E000880B59CB0BFF34F8F7B
:1002E000BFF36F8F684B0021C3F85012BFF34F8FDD
:1002F000BFF36F8F5A6942F400325A61BFF34F8FD8
:10030000BFF36F8FC3F88410BFF34F8FD3F88020F3
:1003100043F6E076C2F3C904C2F34E32A507520198
:1003200002EA060C284621464CEA0007013900F192
:100330004040C3F860724F1CF6D1203A12F1200FF2
:10034000EED1BFF34F8F5A6942F480325A61BFF346
:100350004F8FBFF36F8F00F079FB022000F016FD86
:1003600000230093494BDA6A22F00102DA62DB6A69
:1003700003F001030093464B9A6942F440429A61AC
:100380009A6902F440420092009A9A699404FCD55A
:100390004FF480334FF0010E0520A02102220424E7
:1003A00008251692189217941995CDE909E30023B0
:1003B000CDE9140109A80C9310931B931A93CDE96E
:1003C000122201F005F800B1FEE703234FF03F0CC5
:1003D0004FF480622146CDE901C34023CDE90305F6
:1003E00001A8CDE90533CDE9072301F00DFB00B1EC
:1003F000FEE700F0BBF900B1FEE7BFF34F8FBFF39C
:100400006F8F214B5A6922F400325A61C3F85002AF
:10041000BFF34F8FBFF36F8FC3F88400BFF34F8FCD
:100420005A6922F480325A61BFF34F8FD3F880208B
:1004300043F6E076C2F3C904C2F34E32A507520177
:1004400002EA060C284621464CEA0007013900F171
:100450004040C3F874724F1CF6D1203A12F1200FBD
:10046000EED1BFF34F8FBFF36F8F0A4B00221A609C
:10047000094B0A4A1B6813604FF01042126882F35E
:1004800008889847FEE700BF00ED00E00004005830
:100490000048025810E000E00400009058040020DA
:1004A0007B4B2DE9F04FD3F8D42091B0794D09243E
:1004B00042F480420026784F0BA9C3F8D420284686
:1004C000D3F8D4204FF040084FF00A0BDFF8D0A14A
:1004D00002F480424FF400790092009ADA6F42F4FD
:1004E0008042DA67DA6F22F48042DA67D3F8E020DC
:1004F00042F02002C3F8E020D3F8E02002F020020E
:100500000192019AD3F8E02042F00802C3F8E020FB
:10051000D3F8E02002F008020292029AD3F8E02019
:1005200042F02002C3F8E020D3F8E02002F02002DD
:100530000392039AD3F8E02042F02002C3F8E020AF
:10054000D3F8E02002F020020492049AD3F8E020CD
:1005500042F02002C3F8E020D3F8E02002F02002AD
:100560000592059AD3F8E02042F04002C3F8E0205B
:10057000D3F8E02002F040020692069AD3F8E02079
:1005800042F08002C3F8E020D3F8E02002F08002BD
:100590000792079AD3F8E02042F08002C3F8E020E7
:1005A000D3F8E02002F080020892089AD3F8E02005
:1005B00042F04002C3F8E020D3F8E02002F040020D
:1005C0000992099AD3F8E02042F04002C3F8E020F3
:1005D0004FF48062D3F8E03003F040030A930A9BA3
:1005E0000223CDE90B230323CDE90D630F9400F023
:1005F000DBFA01230BA93846CDF82C800D93CDF8FA
:100600003CB000F0D1FA4FF400630BA923480B93E0
:100610000D960F9400F0C8FA04230BA950460F94CE
:100620000B9300F0C1FA0BA92846CDF82C90CDF819
:100630003CB000F0B9FA08230BA950460F940B9375
:1006400000F0B2FA80230BA928460F940B9300F018
:10065000ABFA0BA93846CDF82C9000F0A5FA0BA9FF
:100660002846CDF82C8000F09FFA4FF480430BA968
:1006700038460B9300F098FA32460F215C2000F0C8
:100680003DFA5C2000F06CFA11B0BDE8F08F00BFBD
:10069000004402580014025800180258000C025876
:1006A000001C025800B54FF4407395B04FF04072F3
:1006B00011480C9305230F920222069300230B92FC
:1006C00006A913930093049303926A46CDE90D3370
:1006D000CDE91133102302934FF48003059340F2C8
:1006E0000113019341F2883300F0D9FD003018BFA7
:1006F000012015B05DF804FB5C04002000B54FF448
:10070000407395B041F2883217480C93062306A92E
:1007100006930023CDE90D330F930B931393CDE98B
:10072000113300F0BCFCE8B940F2022302224FF47E
:10073000800104900C48CDE900331023CDE902324A
:1007400005236A46CDE905134FF0407306A90F93C0
:1007500041F2883300F0A3FD003018BF012015B02E
:100760005DF804FB0120FAE75C0400202DE9F0436A
:100770007D4C9DB07D4B2046236000F074FC074605
:1007800008B10124ECE0FFF78BFE01250323C4E947
:1007900001351023E3604FF0006393FAA3F3B3FA3B
:1007A00083F34FF440762046E761013B2361402309
:1007B000C4E90567236200F0F7FB0028E1D14FF49C
:1007C00080774FF06609099041F2883205906946BA
:1007D0000D900697CDF80090CDE90700CDE90B000C
:1007E000204600F05CFC0028CBD14FF0990841F284
:1007F000883269462046CDF8008000F050FC002881
:10080000BFD141F28832694620460696CDF8009065
:1008100000F045FC0028B4D141F2883269462046F8
:10082000CDF8008000F03BFC0028AAD135231790BA
:10083000139041F288321B900EA914970E93CDE9C4
:100840001500CDE91900204600F029FC002898D1B8
:10085000FFF728FF002894D1B723149617900E9322
:1008600013901B90CDE91500CDE91900FFF746FF65
:10087000002886D141F288320EA9204600F00FFCF4
:1008800000287FF47EAFFFF70DFF00287FF479AFDB
:1008900085234FF440764FF04075ADF800000E937D
:1008A0000223139041F288320EA914961795CDE9D0
:1008B0001500CDE91830CDE91A002B4800F0EFFB08
:1008C00000287FF45EAF41F288326946264800F086
:1008D00085FC00287FF455AFFFF710FF0446002881
:1008E0007FF44FAF812341F288320EA91E480E9348
:1008F000BDF8003023F0F0031B051B0D43F400434B
:1009000043F08003ADF8003000F0C9FB00287FF40D
:1009100038AF41F288326946134800F003FC0028E2
:100920007FF42FAFED236A460EA90F480E934FF4C4
:1009300040631B9415934FF4405314961193052371
:10094000CDE9164513934FF000454FF08043CDE9B4
:100950000044CDE9195300F0F7FC002818BF01242A
:1009600020461DB0BDE8F0835C040020005000521A
:100970007047FEE7FEE7FEE7FEE770477047704707
:1009800000F092B81849194810B5D1F8883043F4EE
:100990007003C1F88830164B1A6842F001021A60E1
:1009A00000221A611C68204018609A61DA611A629C
:1009B0009A62DA621A635A639A63DA631A645A644F
:1009C000186820F4802018601A660A4B1B681B0CFC
:1009D0001B04B3F1005F02D2074B01221A604FF0F3
:1009E00000638B6010BD00BF00ED00E07FEDF6EA14
:1009F000004402580010005C08810051704700005C
:100A000038B50F4B0546187808B9012038BD4FF4AA
:100A10007A730C4AB3FBF0F31068B0FBF3F000F00C
:100A2000ADF804460028F0D10F2DEED80246294635
:100A30004FF0FF3000F062F8034B20461D60E5E701
:100A400008000020000000200C00002010B503204A
:100A500000F042F800F03CFF0F49104A8B69C3F3E5
:100A60000323D35C03F01F03D8400D4B18608B6940
:100A700003F00F03D35C03F01F03D840094B186049
:100A80000F20FFF7BDFF044618B9FFF7B7FF204658
:100A900010BD0124FBE700BF00440258201E0008DF
:100AA0000000002004000020034A044B11681B785A
:100AB0000B441360704700BFA8040020080000200A
:100AC000014B1868704700BFA8040020014B18684C
:100AD000000C70470010005C074A0002D36800F465
:100AE000E06023F4E0631B041B0C43F0BF6343F49A
:100AF00000330343D360704700ED00E0164B70B540
:100B0000DC684FF0FF36C4F30224C4F10705231D4F
:100B1000042D28BF0425062B06FA05F38CBF033CE1
:100B20000024002821EA030303FA04F306FA04F47C
:100B300022EA040443EA04034FEA0313DBB206DBB0
:100B400000F1604000F5614080F8003370BD00F0B6
:100B50000F00024A1354F9E700ED00E014ED00E045
:100B6000002808DB4209012300F01F0003FA00F00F
:100B7000014B43F82200704700E100E00138B0F17A
:100B8000807F0AD2064BF021064A5860002082F886
:100B90002310072298601A6070470120704700BF39
:100BA00010E000E000ED00E04FF0B04C00232DE934
:100BB000F74F724EE246DFF8D0B10A6832FA03F41A
:100BC00002D103B0BDE8F08F4FF0010E0EFA03FE24
:100BD0001EEA020200F0BD804C6824F01004022CD2
:100BE00014D14FEAD30803F007090F2500EB88085A
:100BF0004FEA8909D8F8204005FA09F524EA0505E5
:100C00000C6904FA09F42C43C8F820404FEA430861
:100C10004FF003094C6809FA08F9056804F0030469
:100C20006FEA090904FA08F409EA05052C4304608F
:100C30004D6825F01005013D012D11D88468CD685F
:100C400009EA040405FA08F525438560446824EAA6
:100C50000E0E4C68C4F300149C4044EA0E04446039
:100C6000C46809EA04098C6804FA08F444EA09042F
:100C7000C4604C68E4006CD5414D03F0030E4FF0A6
:100C80000F08D5F8F4404FEA8E0E44F00204C5F880
:100C9000F440D5F8F44023F0030505F1B04504F025
:100CA000020405F580650194019C08FA0EF4D5F85C
:100CB000089029EA0408334CA0424CD004F5806423
:100CC000A0424AD004F58064A04248D0584548D09C
:100CD00004F50064A04246D004F58064A04244D0EC
:100CE00004F58064A04242D004F58064A04240D064
:100CF00004F58064A0423ED004F58064A0420CBF9D
:100D000009240A2404FA0EF444EA0804AC60D5432A
:100D10004F683468FF034CBF14432C4034604F6865
:100D20007468BF034CBF14432C4074604F68DCF8F8
:100D30000040FF024CBF14432C40CAF800404F68EB
:100D4000DAF80440BF0254BF05EA04022243CCF89B
:100D50000420013331E70024D4E70124D2E7022440
:100D6000D0E70324CEE70424CCE70524CAE7062411
:100D7000C8E70724C6E70824C4E700BF800000587E
:100D80000044025800000258000C025838B5104CBC
:100D9000E36813F0040FE36805D103F00703181AA2
:100DA00018BF012038BD23F007031843E060FFF7A8
:100DB00087FE054663689B0401D50020F2E7FFF734
:100DC0007FFE401BB0F57A7FF4D90120EAE700BF2F
:100DD000004802584B6A2DE9F04733B1B2F1406F39
:100DE00003D08B6A0468013B23618B690C6A002B7A
:100DF00067D00568002C35D08B68EB61CC694B6AF5
:100E000005688F69D1F820C0D1F83480D1F810E09E
:100E10000E68D1E90BA9A4B144EA0A04144344EAD8
:100E2000090444EA08042343CC6843EA0E0343EA76
:100E30000C0323433B434C69334343EA84436B61D4
:100E40002AE04AEA0904144344EA0804234343EA33
:100E50000E0343EA0C033B4333434E6943EA8646A1
:100E60006E612CE04E69CC69D1F80090B604D1F8DF
:100E700024804F6BD1E90BECACB11C43CB6814431D
:100E800044EA090444EA080444EA0E0444EA0C046F
:100E90003C431C4334436C61B2F1406F0FD0036894
:100EA0004A689A610BE043EA0903134343EA0803E3
:100EB00043EA0E0343EA0C033B4333436B61BDE853
:100EC000F08744B303688C68DC61CC69D1F8248076
:100ED00005688E69D1F820C04B6BD1F810E0D1E9DC
:100EE0000B796CB13C43144344EA09042343CC68B6
:100EF00043EA080343EA0E0343EA0C0323439AE759
:100F000047EA09042243134343EA080343EA0E0372
:100F100043EA0C03A0E7CD694B6A7DB12B43CD6A50
:100F2000046813432B430D6B2B434D6B2B43CD6850
:100F30002B434D6943EA85436361ADE7002BBED087
:100F4000CC6A0068234313430A6B13434A6B134371
:100F50004A6943EA82434361B1E72DE9F041069DC6
:100F600004460F461646984621688A683A4214BFDE
:100F700001220022B24201D1002011E06B1CF4D00A
:100F8000FFF79EFDA0EB0800A84201D8002DEBD191
:100F90000423012084F84130636C43F0010363644F
:100FA000BDE8F0817047000037B50446FFF788FDC3
:100FB0000546002C4FD094F84030012B4DD0012332
:100FC00084F8403094F8412002F0FF033AB984F8E5
:100FD00040302046FFF7E6FF41F28833A3642068E3
:100FE000A1680268013922F4706242EA01222021DC
:100FF00002600022A36C204600932B46FFF7ADFF52
:1010000020BB2168E569E3680A682B43256A22F062
:101010007F422B43656822F0D00243EA0563134305
:101020000B602168D4E905324D681343226943EA15
:1010300002430B4A2A4013434B602268136843F073
:10104000010313600123606484F84130002384F8B5
:10105000403003B030BD0120FBE70220F9E700BFBC
:10106000FEF8E0FF704710B50446A0B190F840309C
:10107000012B12D00268012380F84030136823F05E
:1010800001031360FFF7EEFF0020606484F8410065
:1010900084F8400010BD0120FCE70220FAE72DE9AA
:1010A000F34704468A469146FFF70AFD94F840301C
:1010B0008046012B34D00123022784F8403094F875
:1010C0004160F6B29E4229D100220346CDF800903D
:1010D00020216264204684F84170FFF73EFF0546F8
:1010E000A8B9024651462046FFF774FEDAF82430CC
:1010F0005BB9CDF800904346324639462046FFF7AB
:101100002CFF054618B92368DF6084F8416000238E
:1011100084F84030284602B0BDE8F0873D46F6E747
:101120000225F7E72DE9F341044688461746FFF705
:10113000C7FC94F840300646012B4DD001232568AA
:1011400084F8403094F84100C0B2984242D1002364
:101150006364B8F1000F38D0122384F841302B6952
:101160000133E3622B69C4F824800133A3626B6905
:1011700023F040636B61E36A9BB900973346012219
:1011800002212046FFF7E9FE10B923680222DA6047
:10119000012384F84130002384F8403002B0BDE8D8
:1011A000F08100973346012204212046FFF7D5FE47
:1011B0000028EDD1636A1B7885F82030636A01331B
:1011C0006362E36A013BE362D5E7636C43F00803C3
:1011D0006364E0E70220DEE70220DFE72DE9F34168
:1011E000044617468846FFF76BFC25680646AA6941
:1011F00094F84030012B50D0012384F8403094F80B
:101200004100C0B2984246D100236364B8F1000F98
:101210003CD0222384F841302B690133A3632B692E
:10122000C4F83080013363636B6923F0406343F09B
:1012300080636B6123689A61A36B9BB90097334607
:10124000012202212046FFF788FE10B923680222FE
:10125000DA60012384F84130002384F8403002B082
:10126000BDE8F08100973346012206212046FFF7B2
:1012700074FE0028EDD195F82020236B1A70236BA3
:1012800001332363A36B013BA363D5E7636C43F096
:1012900008036364E0E70220DEE70220DFE72DE9D0
:1012A000F7430446984689461646FFF709FC94F82A
:1012B00040300746012B45D0012384F8403094F894
:1012C0004150EDB29D423BD142230022CDF8008037
:1012D0002021626484F8413003462046FFF73DFE3A
:1012E00040BB2368204632689A62236872685A625B
:1012F0002368B268DA62216833690A6843F48003BC
:1013000022F4400213434FF000620B604946F36839
:10131000C9F82830FFF75EFDCDF800803B462A462D
:1013200008212046FFF719FE20B923680822DA6059
:1013300084F84150002384F8403003B0BDE8F083C6
:101340000220F7E70220F8E7F7B5044617460E46F5
:10135000FFF7B6FB94F840200346012A36D001225D
:1013600084F8402094F84120012A2DD100228221C6
:101370002046626484F84110A16C00912021FFF79F
:10138000ECFD0546D0B922687968136823F008039C
:101390000B4313607B68082B0AD123683A681A63F1
:1013A00010222368DA602268136843F48013136004
:1013B0004FF0406231462046FFF70CFD002384F8D1
:1013C0004030284603B0F0BD0225F7E70225F8E7D4
:1013D000F8B5044608B9012090E00368DD075ED443
:1013E0002368980700F1AC802368DA0623D5AB4B5D
:1013F0001A69996A02F03802082A07D0182A40F0C0
:10140000008101F00302012A40F0FB801B68DB052C
:1014100002D5E369802BDED1FFF758FB41F20303CD
:101420009E4A9842216A00F2E580536823F0F8430F
:1014300043EA816353602368190700F11B81236825
:101440009A0600F1408123685D0722D5944D2B68F0
:1014500043F480732B60FFF733FB06462B68DA05F5
:1014600040F15681A2688D4B012A40F058811A6FD5
:1014700042F001021A67A368002B00F06781FFF7B2
:101480001FFB864D064641F288372B6F9B0740F1C4
:101490005681606A002840F0698100202EE07F4B71
:1014A0001A69996A02F03802102A05D0182A0AD15E
:1014B00001F00302022A06D11B68990390D56368E4
:1014C000002B8DD187E76268744BB2F5803F16D14F
:1014D0001A6842F480321A6063680BB3FFF7F0FABF
:1014E0006E4D064641F288372B689A033FF578AF78
:1014F000FFF7E6FA801BB842F6D90320F8BD3AB9E7
:101500001A6822F480321A601A6822F48022E2E714
:10151000B2F5A02F1A68F4D142F480221A60D7E7FE
:10152000FFF7CEFA5D4D064641F288372B689B03E4
:101530007FF556AFFFF7C4FA801BB842F6D9DCE757
:10154000564B1A69996A12F0380203D0182A1BD137
:101550008E0719D11B685D0703D5E368002B3FF4A4
:101560003AAFFFF7B3FA41F203034C4A98422169BC
:10157000536895BF23F47C3323F0FE4343EA0133E1
:1015800043EA016353602FE7444DE2682B680AB3D6
:1015900023F0190313432B60FFF792FA06462B68DA
:1015A000580711D5FFF792FA41F2030322699842D6
:1015B0006B6895BF23F47C3323F0FE4343EA023388
:1015C00043EA02636B600FE7FFF77AFA801B022899
:1015D000E5D992E723F001032B60FFF771FA064685
:1015E0002B6859077FF500AFFFF76AFA801B0228C6
:1015F000F6D982E7D36823F07C5343EA0163D360D2
:1016000019E7E369254D23B32B6843F080032B6072
:10161000FFF756FA06462B68DF050DD5FFF756FA99
:1016200041F20303226A98420CD86B6823F0F84316
:1016300043EA82636B60FEE6FFF742FA801B0228F2
:10164000E9D95AE7EB6823F07C5343EA0263EB6085
:10165000F1E62B6823F080032B60FFF731FA064692
:101660002B68D8057FF5E7AEFFF72AFA801B022822
:10167000F6D942E76369094DA3B16B6F43F00103EB
:101680006B67FFF71DFA06466B6F9B073FF5D7AEFA
:10169000FFF716FA801B0228F6D92EE700440258FD
:1016A000004802586B6F23F001036B67FFF708FADD
:1016B00006466B6F9F077FF5C2AEFFF701FA801BEE
:1016C0000228F6D919E7A369804D83B12B6843F44A
:1016D00080532B60FFF7F4F906462B6898043FF51A
:1016E000B2AEFFF7EDF9801B0228F6D905E72B68AB
:1016F00023F480532B60FFF7E3F906462B68990427
:101700007FF5A1AEFFF7DCF9801B0228F6D9F4E6DD
:10171000FFF7D6F9801B64287FF6A0AEEDE63AB954
:101720001A6F22F001021A671A6F22F00402A1E672
:10173000052A1A6FF5D142F004021A6797E6FFF7FF
:10174000BFF9801BB8427FF6A0AED6E6FFF7B8F926
:101750005E4D064641F288372B6F98077FF599AEAC
:10176000FFF7AEF9801BB842F6D9C6E6574D2B6994
:1017700003F03803182B7AD02B68022823F08073EB
:101780002B6067D1FFF79CF906462B6899015BD463
:10179000AB6AA26A23F47C7323F003031343E26A67
:1017A00043EA0213AB62636BA26B013B013A5B023B
:1017B00012049BB202F4FE021343226B013AC2F3FD
:1017C00008021343E26B013A120602F0FE42134391
:1017D0002B63EB6A23F00103EB626B6BA26C23F4C7
:1017E0007F4323F0F80343EAC2036B63EB6A226C86
:1017F00023F00C031343EB62EB6A626C23F00203E9
:10180000324C1343EB62EB6A43F48033EB62EB6AD6
:1018100043F40033EB62EB6A43F48023EB62EB6A40
:1018200043F00103EB622B6843F080732B60FFF7FA
:1018300047F9054623689A013FF52FAEFFF740F9B7
:10184000401B0228F6D958E6FFF73AF9801B022818
:101850009BD952E6FFF734F904462B689B017FF5CC
:101860001CAEFFF72DF9001B0228F6D945E601282A
:10187000AA6A2B6B3FF442AE02F00301A06A8142D8
:101880007FF4A9ADC2F30512E16A8A427FF4A3ADE9
:10189000226BC3F30801013A91427FF49CAD626B65
:1018A000C3F34621013A91427FF495ADA26BC3F395
:1018B0000641013A91427FF48EADE06BC3F30663BB
:1018C0000138181A18BF012018E600BF004402585A
:1018D000464B10B51A6902F03802102A00F08480D5
:1018E000182A0CD00AB1424810BD1A68414812F0BB
:1018F000200FF9D01B68C3F3C103D840F4E7996AFD
:10190000986ADA6AC0F305105C6B0028ECD007EE29
:10191000900A02F00102C4F3CC00B7EE006AF8EEC0
:10192000E76A424307EE902A01F00302012AFAEE29
:10193000E97A02D00FD3022A48D01B6BC3F3080305
:1019400007EE103AB8EEC77A77EE277A77EE867A06
:101950009FED296A37E01A68920627D51968254A4B
:10196000C1F3C1011B6BCA40C3F3080307EE102A81
:10197000F8EEC75A85EEA67A06EE903AF8EEE66AD9
:1019800076EEA77A77EE867A184B67EE877A1B6B2E
:10199000C3F34623013307EE103AF8EEC76A87EE29
:1019A000A67AFCEEC77A17EE900A9DE71B6BC3F38D
:1019B000080307EE103AB8EEC77A77EE277A77EE8B
:1019C000867A9FED0E6A86EE267ADDE71B6BC3F3FF
:1019D000080307EE103AB8EEC77A77EE277A77EE6B
:1019E000867A9FED076AEEE706487DE700440258D5
:1019F00000093D000090D0030024744A0024744C78
:101A000020BCBE4B40787D012DE9F0410D460446D7
:101A100010B90120BDE8F081884A136803F00F0374
:101A20008B42C0F0928023685E0700F19A802368A1
:101A300018070BD5824A6069D16901F070018842AC
:101A400004D9D36923F070030343D3612368D90613
:101A50000BD57B4AA069D16901F4E061884204D9C1
:101A6000D36923F4E0630343D36123689A060BD55B
:101A7000734AE069116A01F07001884204D9136A5F
:101A800023F070030343136223689B070BD56C4A52
:101A9000E068916901F00F01884204D9936923F04D
:101AA0000F03034393612368DF0768D423689E070D
:101AB00000F19B80614A136803F00F03AB4200F210
:101AC000A2802368580700F1AA80236819070BD564
:101AD0005B4A6069D16901F07001884204D2D36920
:101AE00023F070030343D3612368DA060BD5544A0D
:101AF000A069D16901F4E061884204D2D36923F47A
:101B0000E0630343D36123689B060BD54C4AE0692D
:101B1000116A01F07001884204D2136A23F0700345
:101B200003431362FFF7D4FE454B464A9B69C3F358
:101B30000323D35C03F01F03D840434B1860434B8F
:101B4000BDE8F0411868FEF75BBF136823F00F0390
:101B50000B431360136803F00F038B427FF459AFFC
:101B600061E7374A2069916901F0700188427FF688
:101B70005EAF936923F070030343936157E7304BE3
:101B8000A1689A6922F470620A439A6161681A68CE
:101B900002291DD112F4003F3FF43BAF1A6941F214
:101BA0008838274E22F007020A431A61FEF788FFA1
:101BB00007463369626803F03803B3EBC20F3FF4A2
:101BC00075AFFEF77DFFC01B4045F2D9032021E72A
:101BD000032902D112F0007FDEE7012902D112F4BD
:101BE000807FD9E712F0040FD6E7154AE0689169C3
:101BF00001F00F018842BFF45DAF936923F00F033A
:101C00000343936156E7136823F00F032B431360DC
:101C1000136803F00F03AB427FF4FBAE51E7084AB1
:101C20002069916901F070018842BFF44EAF936959
:101C300023F070030343936147E700BF0020005285
:101C400000440258201E0008000000200C00002064
:101C5000DFF834D0002103E00C4B5B5843500431D3
:101C60000B480C4B42189A42F6D30B4A02E0002371
:101C700042F8043B094B9A42F9D3FEF783FE00F089
:101C800011F8FEF729FB704700000220401E0008F3
:101C9000000000203C0400203C040020D004002070
:101CA000FEE7000070B50D4E0D4D761BB61006D048
:101CB0000024013455F8043B9847A642F9D1094E57
:101CC000094D761B00F0A0F8B61006D000240134B0
:101CD00055F8043B9847A642F9D170BD341E000860
:101CE000341E00083C1E0008341E0008024B13B1CD
:101CF000024800F005B87047000000000D1D000804
:101D0000002301461A46184600F01EB838B50A4CA2
:101D10000A4D641BA4100AD004F18043013B05EB7B
:101D20008305013C55F804399847002CF9D1BDE8EA
:101D3000384000F06FB800BF401E00083C1E00088D
:101D4000704700BF704700BF2DE9F8432B4D064692
:101D5000286898460F469146FFF7F2FF284B1C680B
:101D6000D4F84831002B3DD05A681F2A0DDC02F10F
:101D7000010C16BB0232C3F804C0286843F8227075
:101D8000FFF7E0FF0020BDE8F8831E4B7BB34FF464
:101D9000C870AFF30080034648B3D4F8482100214F
:101DA000C0E900214FF0010CC4F848010A46C0F810
:101DB0008811C0F88C11002EDCD003EB82010124C5
:101DC000C1F88890D3F8880194402043022EC3F8CC
:101DD0008801C1F80881CDD1D3F88C110C43C3F828
:101DE0008C41C7E704F5A673C4F84831BCE72868FE
:101DF000FFF7A8FF4FF0FF30C5E700BF3804002011
:101E0000301E000800000000F8B500BFF8BC08BC98
:101E10009E467047F8B500BFF8BC08BC9E467047A8
:101E20000000000001020304010203040607080980
:101E300010000020ED1C0008BD02000899020008F7
:101E40000090D0030090D0030100000010000000BB
:101E500000000000FC02002064030020CC030020EE
:101E60000000000000000000000000000000000072
:101E70000000000000000000000000000000000062
:101E80000000000000000000000000000000000052
:101E90000000000000000000000000000000000042
:101EA0000000000000000000000000000000000032
:101EB0000000000000000000000000000000000022
:101EC0000000000000000000000000000000000012
:101ED0000000000000000000000000000000000002
:101EE00000000000000000000000000000000000F2
:101EF00000000000000000000100000000000000E1
:101F00000E33CDAB34126DE6ECDE05000B000000A5
:101F100000000000000000000000000000000000C1
:101F200000000000000000000000000000000000B1
:101F300000000000000000000000000000000000A1
:101F40000000000000000000000000000000000091
:0C2270000000000000000000AC04002092
:0200000490006A
:100000000000082479060090CD380090CF38009089
:10001000D1380090D3380090D5380090000000000F
:1000200000000000000000000000000031B6009059
:10003000D738009000000000C1B600905DAF00907E
:10004000C9060090C9060090C9060090C906009034
:10005000C9060090C9060090C9060090C906009024
:10006000C9060090C9060090C9060090C906009014
:10007000C9060090C9060090C9060090C906009004
:10008000C9060090C9060090C9060090C9060090F4
:10009000C9060090C9060090C9060090C9060090E4
:1000A000C9060090C9060090C9060090C9060090D4
:1000B000C9060090C9060090C9060090C9060090C4
:1000C000C9060090C9060090C9060090C9060090B4
:1000D000C9060090C9060090C9060090D938009062
:1000E000C9060090C906009000000000C9060090F3
:1000F000C9060090C9060090C9060090C906009084
:10010000C9060090C9060090C9060090C906009073
:10011000C9060090C9060090E5380090C906009015
:10012000C9060090C9060090C9060090C906009053
:10013000C9060090C9060090C9060090C906009043
:1001400000000000000000000000000000000000AF
:10015000C9060090C9060090C9060090C906009023
:10016000C9060090C9060090C9060090C906009013
:10017000C9060090C9060090C9060090C906009003
:10018000C9060090C9060090C9060090C9060090F3
:10019000C9060090C9060090C9060090C9060090E3
:1001A000F1380090C9060090FD380090C906009013
:1001B000C9060090C9060090C9060090C9060090C3
:1001C000C9060090C9060090C9060090C9060090B3
:1001D000C9060090C9060090C9060090C9060090A3
:1001E000C9060090C9060090C9060090C906009093
:1001F000C9060090C9060090C9060090C906009083
:10020000C9060090C9060090C9060090C906009072
:10021000C9060090C9060090C9060090C906009062
:10022000C9060090C9060090C906009000000000B1
:10023000C9060090C906009000000000C9060090A1
:10024000C9060090C9060090C9060090C906009032
:10025000C9060090C9060090C9060090C906009022
:10026000C9060090C9060090C9060090C906009012
:10027000C9060090C9060090C90600900000000061
:10028000C9060090C9060090C90600900000000051
:0802900000000000C906009007
:1002A00010B5054C237833B9044B13B10448AFF3B0
:1002B00000800123237010BD3001002400000000E5
:1002C0006C05029008B5034B1BB103490348AFF31B
:1002D000008008BD00000000340100246C0502907D
:1002E00001F0FF01102A2BDB10F0070F08D010F8E7
:1002F000013B013A8B422DD010F0070F42B3F6D1EB
:10030000F0B441EA012141EA014122F007047FF003
:1003100000070023F0E80256083C85EA010586EA5A
:10032000010685FA47F5A3FA87F586FA47F6A5FA96
:1003300087F68EB9EED1F0BC01F0FF0102F00702A2
:1003400032B110F8013B013A83EA010313B1F8D14D
:100350000020704701387047002D06BF354603382E
:10036000073815F0010F07D1013015F4807F02BF67
:10037000013015F4C03F0130F0BC0138704700BFB8
:1003800053B94AB9002908BF00281CBF4FF0FF31FC
:100390004FF0FF3000F06EB9ADF1080C6DE904CEFE
:1003A00000F006F8DDF804E0DDE9022304B0704750
:1003B0002DE9F047089D04468C46002B40F08380D1
:1003C0008A42174647D9B2FA82F242B1C2F12000FE
:1003D00024FA00F09140974040EA010C94404FEA23
:1003E0001748230CBCFBF8F61FFA87FE08FB16C162
:1003F00043EA014306FB0EF1994209D9FB1806F1C5
:10040000FF3080F01981994240F21681023E3B4450
:100410005B1AA4B2B3FBF8F008FB103344EA0344C0
:1004200000FB0EFEA64509D93C1900F1FF3380F010
:100430000581A64540F2028102383C4440EA06406C
:10044000A4EB0E0400261DB1D4400023C5E90043EF
:100450003146BDE8F08702B9FFDEB2FA82F2002A27
:1004600050D1CB1B4FEA174E1FFA87F80126B3FB7A
:10047000FEFC210C0EFB1C3341EA034108FB0CF38C
:100480008B4207D979180CF1FF3002D28B4200F26F
:10049000E9808446C91AA3B2B1FBFEF00EFB10112D
:1004A00043EA014408FB00F8A04507D93C1900F1D4
:1004B000FF3302D2A04500F2D9801846A4EB08040D
:1004C00040EA0C40BFE78B4209D9002D00F0B18013
:1004D0000026C5E9000130463146BDE8F087B3FA91
:1004E00083F6002E4AD18B4202D3824200F2B880BA
:1004F000841A61EB030101208C46002DA8D0C5E9C8
:10050000004CA5E7C2F1200320FA03F6974001FA58
:1005100002F04FEA174ED9403043030CB1FBFEF610
:100520001FFA87F80EFB161143EA014306FB08F198
:10053000994204FA02F409D9FB1806F1FF3C80F055
:100540008D80994240F28A80023E3B445B1A81B220
:10055000B3FBFEF00EFB103341EA034100FB08F34E
:100560008B4207D9791800F1FF3C73D28B4271D9C5
:1005700002383944CB1A40EA064678E7C6F1200C27
:1005800003FA06F422FA0CF31C4320FA0CF701FAE2
:1005900006F34FEA144E21FA0CF11F433B0CB1FB5A
:1005A000FEF91FFA84F80EFB191143EA014109FB19
:1005B00008FA8A4502FA06F200FA06F308D9611829
:1005C00009F1FF3048D28A4546D9A9F102092144F0
:1005D000A1EB0A01BFB2B1FBFEF00EFB101147EA1E
:1005E000014700FB08F8B84507D9E71900F1FF31CA
:1005F0002ED2B8452CD90238274440EA0940A7EB4F
:100600000807A0FB02894F45C64649461AD317D0B2
:100610005DB1B3EB0E0267EB010707FA0CFCF24089
:100620004CEA0202F740C5E9002700263146BDE842
:10063000F0872E4628460BE70646E9E61846FDE613
:100640004345E5D2B8EB020E69EB04010138DFE760
:100650000846D2E760468DE78146B9E7664675E70A
:1006600030464AE7ACF1020C394413E702383C4407
:1006700024E700BF704700BFDFF834D0002103E05B
:100680000C4B5B58435004310B480C4B42189A42B8
:10069000F6D30B4A02E0002342F8043B094B9A428E
:1006A000F9D306F0F5F91EF047FE02F001FC7047A1
:1006B00000000824C0410290000000243001002402
:1006C00030010024EC300124FEE701F087BE01F088
:1006D000AFBE000080B483B000AF7860044A7B688E
:1006E0001A607B6818460C37BD465DF8047B70477E
:1006F0002411029080B582B000AF78607868FFF76F
:10070000E9FF0C2178681EF09EFD7B6818460837CB
:10071000BD4680BD80B584B000AF78600B46FB70ED
:10072000FB78002B11D07B681B6810331B6878683E
:10073000984702467B689B68D31AFB607B685A68BF
:10074000FB681A447B685A6008E07B681B681033BA
:100750001B687868984702467B689A6000BF10372C
:10076000BD4680BD80B483B000AF78607B685B68B5
:1007700018460C37BD465DF8047B704780B483B0E3
:1007800000AF786039607B683A685A6000BF0C3708
:10079000BD465DF8047B704780B483B000AF7860DD
:1007A0000B4B1B680A4A43F080731360094B1A68AD
:1007B0000849094B13430B60084B1B68074A43F079
:1007C0000103136000BF0C37BD465DF8047B704722
:1007D000FCED00E0B01F00E055CEACC5001000E01D
:1007E00080B485B000AFF860B9607A603B607A6829
:1007F000BB68D21A3B685B081A443B68B2FBF3F350
:1008000018461437BD465DF8047B704780B483B04A
:1008100000AF7860034B1B6818460C37BD465DF887
:10082000047B7047041000E080B584B000AF7860AE
:100830000B46FB70FB78002B11D07B681B681033D4
:100840001B687868984702467B689B68D31AFB60F0
:100850007B685A68FB681A447B685A6008E07B68CA
:100860001B6810331B687868984702467B689A605B
:1008700000BF1037BD4680BD80B582B000AF786044
:10088000054A7B681A607B681846FFF723FF7B6880
:1008900018460837BD4680BDFC10029080B582B076
:1008A00000AF78607868FFF7E7FF0C2178681EF0EA
:1008B000CAFC7B6818460837BD4680BD80B483B04B
:1008C00000AF7860044A7B681A607B6818460C3772
:1008D000BD465DF8047B70476411029080B582B01C
:1008E00000AF78607868FFF7E9FF042178681EF0B0
:1008F000AAFC7B6818460837BD4680BD80B586B027
:1009000000AF786008233B6100237B614FF4F073F4
:10091000BB604FF48873FB6007F1080319460020A1
:1009200005F0CEFF00BF1837BD4680BD80B588B04A
:1009300000AFF860B9607A6007F1140300221A6012
:100940005A609A6007F114031946002006F040F837
:100950007B69002B09D0BB691A46BB681A60FB692A
:100960001A467B681A60012300E0002318462037EE
:10097000BD4680BD80B582B000AF7860054A7B6817
:100980001A607B681846FFF799FF7B68184608379E
:10099000BD4680BD4C11029080B582B000AF78603A
:1009A0007868FFF7E7FF042178681EF04CFC7B684D
:1009B00018460837BD4680BD80B582B000AF0346FB
:1009C000FB71FB79032B2BD801A252F823F000BF57
:1009D000E1090090FF0900901F0A00901F0A009093
:1009E000FB79114A52F82330002B0CBF012300235E
:1009F000DBB21A4604210D4806F0FCFE10E0FB793C
:100A0000094A52F82330002B0CBF01230023DBB22C
:100A10001A464FF40051064806F0ECFE00E000BF15
:100A200000BF0837BD4680BD4C0100240024025899
:100A30000020025880B582B000AF0346FB71FB79FD
:100A4000032B2BD801A252F823F000BF5D0A0090BF
:100A50007B0A00909B0A00909B0A0090FB79114A48
:100A600052F82330002B01D0012300E000231A4666
:100A700004210D4806F0BEFE10E0FB79094A52F849
:100A80002330002B01D0012300E000231A464FF44D
:100A90000051064806F0AEFE00E000BF00BF083778
:100AA000BD4680BD4C01002400240258002002589D
:100AB00080B582B000AF0346FB71FB79032B17D8DA
:100AC00001A252F823F000BFD90A0090E30A009077
:100AD000EF0A0090EF0A00900421074806F08FFE0D
:100AE00006E04FF40051054806F089FE00E000BF23
:100AF00000BF0837BD4680BD0024025800200258C0
:100B000080B483B000AF7860044A7B681A607B6869
:100B100018460C37BD465DF8047B7047081F0290ED
:100B200080B582B000AF78607868FFF7E9FF7C217C
:100B300078681EF088FB7B6818460837BD4680BD84
:100B400080B400AF034B1B681846BD465DF8047BBC
:100B5000704700BFE02A012480B483B000AF786002
:100B60000B46FB707B68FA7883F874207B6801225F
:100B700083F8752000BF0C37BD465DF8047B7047D5
:100B800080B582B000AF78607B6893F87730002B37
:100B900009D07B685A687B685B681B681B681046D5
:100BA0009847034600E0002318460837BD4680BD3D
:100BB00080B582B000AF786078680DF0D7FA7B68B6
:100BC0001B6890331B687868984700BF0837BD469C
:100BD00080BD80B483B000AF7860396000231846D0
:100BE0000C37BD465DF8047B7047000080B584B0CB
:100BF00000AFF860B9607A603B60BB68002B06D13B
:100C0000114B124A40F26B2111481EF04BFBFB685E
:100C1000BA68DA63FB687A681A64FB683A685A64EF
:100C20007B68002B14BF01230023DAB2094B1A7032
:100C30003B68002B14BF01230023DAB2064B1A7065
:100C400000BF1037BD4680BD84050290BC050290F0
:100C50000C060290DE2A0124DF2A012480B483B02E
:100C600000AF786039607B683A681A6100BF0C3762
:100C7000BD465DF8047B704780B483B000AF7860F8
:100C80000B46FB707B68FA7883F86C2000BF0C374A
:100C9000BD465DF8047B704780B483B000AF7860D8
:100CA000002318460C37BD465DF8047B704780B5BD
:100CB00082B000AF78600B467B807B689B6B002B1B
:100CC00004D07B689B6B7A881046984700BF083732
:100CD000BD4680BD80B483B000AF78604FF6FF732F
:100CE00018460C37BD465DF8047B704780B582B06E
:100CF00000AF78607B685A687B685B681B68183354
:100D00001B6810469847034618460837BD4680BD05
:100D100080B483B000AF78607B6893F874207B6800
:100D200093F834309A4217D01A4B1B78002B2AD1F3
:100D3000194B1A88194B1A80194B1A88194B1A80AB
:100D4000164B1A88164B1A80164B1A88124B1A80AB
:100D5000104B01221A7016E00E4B1B78002B12D09C
:100D60000F4B1A880D4B1A800B4B1A880D4B1A80AB
:100D70000C4B1A880A4B1A80084B1A88064B1A80AB
:100D8000044B00221A7000BF0C37BD465DF8047B8F
:100D9000704700BFD82A0124D42A0124DA2A01246A
:100DA000D62A0124DC2A012480B582B000AF786005
:100DB0007B6818460CF060FC00BF0837BD4680BD5C
:100DC00080B582B000AF7860054A7B681A607B68A6
:100DD0001846FFF795FE7B6818460837BD4680BD6C
:100DE000B814029080B582B000AF78607868FFF7E1
:100DF000E7FF7C2178681EF026FA7B6818460837E2
:100E0000BD4680BD80B582B000AF78607B68184673
:100E1000FFF7CAFF00BF0837BD4680BD80B582B06E
:100E200000AF78607B68184601F0F2FD7B687C3388
:100E30001846FFF7B1FC7A687B687C331946104688
:100E4000FFF70CFF7B6801211846FFF715FF00BF75
:100E50000837BD4680BD000080B582B000AF786025
:100E60007B681B6868331B68786898477B681B68D9
:100E700060331B687868984700F07AF97A687B6875
:100E80001B6858331B6810469847012204210B4801
:100E900006F0B0FC01228021094806F0ABFC0122DB
:100EA0000121084806F0A6FC00F062F97A687B6828
:100EB0001B6858331B6810469847F5E70000025836
:100EC000000C02580028025880B582B000AF78604C
:100ED0007B68184601F01AFE034618460837BD46DF
:100EE00080BD80B582B000AF786039607B683968BA
:100EF000184601F019FE00BF0837BD4680BD00004E
:100F000080B586B000AF786039607B683968184674
:100F100001F020FE204B0022C3F88420BFF34F8F46
:100F200000BF1D4BD3F880307B617B695B0BC3F343
:100F30000E033B617B69DB08C3F30903FB603B697C
:100F40005A0143F6E0731340FA68920712491343BB
:100F5000C1F87432FB685A1EFA60002B14BF0123DB
:100F60000023DBB2002B00D0E9E73B695A1E3A614F
:100F7000002B14BF01230023DBB2002B00D0D9E7E4
:100F8000BFF34F8F00BFBFF36F8F00BF00BF00BF25
:100F90001837BD4680BD00BF00ED00E080B582B0CF
:100FA00000AF78607B68184601F056FD00BF083737
:100FB000BD4680BD80B582B000AF78607B681846C2
:100FC00001F05AFD00BF0837BD4680BD80B582B034
:100FD00000AF78607B68184601F05CFD00BF083701
:100FE000BD4680BD80B582B000AF78607B68184692
:100FF00001F05EFD00BF0837BD4680BD80B582B000
:1010000000AF78607B68002B07D0FFF799FD03469F
:10101000012118460DF0C4F806E0FFF791FD0346E4
:10102000002118460DF0BCF8012318460837BD46CC
:1010300080BD000080B582B000AF7860084A7B6850
:101040001A607B687C331846FFF716FC7B681846ED
:10105000FFF7B6FE7B6818460837BD4680BD00BF67
:101060007C11029080B582B000AF78607868FFF79D
:10107000E1FF882178681EF0E6F87B68184608379B
:10108000BD4680BD80B500AF00220121012009F0DE
:10109000F4FF03460F4A13600E4B1B68002B05D16B
:1010A0000D4B0E4A25210E481EF0FCF800220421AB
:1010B00001200AF081F803460A4A1360094B1B68B5
:1010C000002B05D1084B054A292105481EF0EAF8F6
:1010D00000BF80BD5C01002454060290A00602906F
:1010E000D0060290600100243007029080B500AF66
:1010F000044B1B684FF0FF3118460AF009F800BF97
:1011000080BD00BF5C01002480B500AF034B1B68AD
:1011100018460AF029F800BF80BD00BF5C0100241A
:1011200080B500AF034B1B680021184609F0F0FFA3
:1011300000BF80BD5C01002480B500AF034B1B687D
:1011400018460AF011F800BF80BD00BF5C01002402
:1011500080B500AF044B18680023002203490AF051
:1011600067F800BF80BD00BF6001002404000024B8
:1011700080B582B000AF094B1868391D00230022EA
:101180000AF086F8054B1868391D4FF0FF3300222E
:101190000AF07EF800BF0837BD4680BD600100241C
:1011A00080B483B000AF0346FB80B7F90630002B54
:1011B0000BDBFB8803F01F020749B7F906305B0918
:1011C000012000FA02F241F8232000BF0C37BD468F
:1011D0005DF8047B704700BF00E100E080B483B09D
:1011E00000AF0346FB80B7F90630002B12DBFB880B
:1011F00003F01F020A49B7F906305B09012000FA23
:1012000002F2203341F82320BFF34F8F00BFBFF31A
:101210006F8F00BF00BF0C37BD465DF8047B704781
:1012200000E100E080B483B000AF78607B6800220A
:101230001A607B6818460C37BD465DF8047B704722
:1012400080B483B000AF78607B681B6818460C37A9
:10125000BD465DF8047B704780B483B000AF786012
:10126000044A7B681A607B6818460C37BD465DF8F7
:10127000047B70478812029080B582B000AF78601E
:101280007868FFF7E9FF042178681DF0DCFF7B68D0
:1012900018460837BD4680BD80B582B000AF786083
:1012A0007B681B6844331B687868984700BF083721
:1012B000BD4680BD80B483B000AF7860044A7B68CF
:1012C0001A607B6818460C37BD465DF8047B704792
:1012D0005423029080B582B000AF78607868FFF741
:1012E000E9FF0C2178681DF0AEFF7B6818460837CF
:1012F000BD4680BD80B483B000AF78603960094AD4
:101300007B681A607B683A685A607B6800221A72B0
:101310007B6800225A727B6818460C37BD465DF820
:10132000047B70475423029080B483B000AF786090
:10133000012318460C37BD465DF8047B704780B525
:1013400082B000AF78607A687B681B6828331B68BE
:101350001046984700BF0837BD4680BD80B582B0B3
:1013600000AF78607B685A687B685B681B681433E1
:101370001B681046984700BF0837BD4680BD80B542
:1013800082B000AF7860FFF7DBFB03461846FFF73B
:10139000E5FF00BF0837BD4680BD80B582B000AF15
:1013A00078607B6818331846FFF73CFF7B68184667
:1013B0000837BD4680BD0000B0B582B000AF786090
:1013C0007A687B680C3319461046FFF793FF0E4A84
:1013D0007B681A607B6803F10C007B682033602215
:1013E00019460DF03BF87B6820335F241D46002C26
:1013F00005DB2846FFF7D1FF2035013CF7E77B6886
:1014000018460837BD46B0BD3812029080B582B08C
:1014100000AF7860094A7B681A605A20FFF7DEFE49
:101420007B680C33184600F02BFB7B681846FFF7EF
:1014300041FF7B6818460837BD4680BD38120290D0
:1014400080B582B000AF78607868FFF7DFFF4FF4B7
:10145000426178681DF0F7FE7B6818460837BD4684
:1014600080BD000080B584B000AF7860124BD3F827
:10147000D430114A43F01003C2F8D4300E4BD3F8E5
:10148000D43003F01003FB60FB680B4BDB6F0A4AA0
:1014900043F01003D367084BDB6F074A23F01003B8
:1014A000D367064B064A1A625A20FFF779FE00BF3F
:1014B0001037BD4680BD00BF00440258182F0124DC
:1014C0007F13009080B584B000AF78600B46FB704E
:1014D0000023FB60FB780B2B26D801A252F823F0E7
:1014E0001D150090171500901115009029150090FA
:1014F00029150090291500902915009023150090BA
:1015000023150090231500902315009023150090BB
:101510000023FB600EE00123FB600BE00223FB6075
:1015200008E00523FB6005E0054B064A65210648F7
:101530001DF0B8FEFB6818461037BD4680BD00BFE1
:101540007407029090070290DC07029080B584B087
:1015500000AF78600B46FB700023FB60FB780A2B22
:1015600021D801A252F823F0A11500909B150090FC
:1015700095150090A7150090A7150090A71500904D
:10158000A71500909B1500909B1500909B1500904F
:101590009B1500900023FB600BE00123FB6008E03B
:1015A0000223FB6005E0054B054A862105481DF036
:1015B00079FEFB6818461037BD4680BD740702905F
:1015C0003C080290DC07029080B483B000AF7860E2
:1015D00040F2EF1318460C37BD465DF8047B7047A8
:1015E00090B589B000AF786039603B685B7F194681
:1015F0007868FFF767FFF8613B689B7F194678685A
:10160000FFF760FFB8613B689B7F19467868FFF77A
:101610009DFF78613B68DB8A1A463B681B8AD21AB9
:101620008B4B1A643B68DB8A1A463B681B8AD21ACA
:10163000874B9A613B689B8A1A463B681B8AD21A81
:10164000834B1A61824A7B6953633B685B8A1A4603
:101650003B681B8A1B041A437D4B5A643B68DA685B
:101660007B4BDA633B685A68794BDA603B681B68EE
:10167000B3F5807F46D0B3F5807F00F2F980802BF0
:101680000ED0802B00F2F480402B00F0CC80402B59
:1016900000F2EE80042B67D0202B00F0C480E7E03E
:1016A0003B681B7F1B061946694A6A4B0B43D36193
:1016B0003B6818331846FFF7C3FD03461B0203F4CB
:1016C00078043B6818331846FFF7BAFD03465B0100
:1016D00003F47C431C433B6818331846FFF7B0FD06
:1016E0000346DB0003F0F803594A23431362584AC8
:1016F000BB6953623B68DA68554B5A61544B564A92
:101700001A60F6E03B681B7F1B061946504A534B94
:101710000B43D3613B6818331846FFF791FD03462E
:101720001B0203F478043B6818331846FFF788FD62
:1017300003465B0103F47C431C433B6818331846A3
:10174000FFF77EFD0346DB0003F0F803404A234326
:1017500013623F4ABB6953623B68DA683C4B5A618B
:101760003B4B3D4A1A60C4E03B681B7F1B061A4690
:10177000FB691343364A43F40033D361344ABB69EF
:1017800053623B68DA68324B5A613B685B7F0B2BD4
:1017900045D13B689B683B613B691A1D2C4BDA6263
:1017A0003B691B88DBB2002B02D0012B0DD01AE065
:1017B000274BDA692A4B13403A695288013A1202E0
:1017C0001146234A0B43D36113E0214BDA69244BC2
:1017D00013403A695288013A120213431C4A43F0FB
:1017E0001003D36105E01F4B1F4AFC211F481DF069
:1017F00059FD174BDB69164A43F02003D361144BA4
:10180000DB6903F02003002B14BF01230023DBB2AC
:10181000002B01D000BFF2E70D4B10229A600C4B59
:101820000D4A1A6065E03B681B7F1B061A46FB6980
:101830001343074A43F40033D361054ABB6953623B
:101840003B68DA68024B5A61014B034A1A6050E068
:10185000001000520A00020001020200090002000A
:10186000EF00FFFF8C080290A8080290DC070290AE
:101870003B681B7F1B061A46FB6913431F4A43F450
:101880000033D3613B685B7F0B2B2DD13B689B689A
:10189000FB60FB681A1D194BDA62184BDA69184BAA
:1018A0001340FA685288013A12021343134A43F074
:1018B0001003D361114BDB69104A43F02003D3615D
:1018C0000E4BDB6903F02003002B14BF0123002320
:1018D000DBB2002B01D000BFF2E7084B10229A6068
:1018E000064B084A1A6003E0044B40F201221A60DA
:1018F00000BF00BF2437BD4690BD00BF001000529E
:10190000EF00FFFF0102010090B585B000AF7860E5
:1019100039603B689B7F19467868FFF717FEF860CF
:10192000534AFB6853633B685B8A1A463B681B8AD1
:101930001B041A434E4B5A643B68DA684C4BDA631B
:101940003B68DB8A1A463B681B8AD21A484B1A64EA
:101950003B681B68082B4CD13B68DB8A1A463B6806
:101960001B8AD21A424B9A613B68DB8A1A463B6853
:101970001B8AD21A3E4B1A613D4AFB6853623B6890
:101980001B7F1B0619463A4A3A4B0B43D3613B680F
:101990001B7F1B061C463B6818331846FFF750FC9C
:1019A00003461B0203F478031C433B6818331846B4
:1019B000FFF746FC03465B0103F47C431C433B6892
:1019C00018331846FFF73CFC0346DB0003F0F8032E
:1019D0002343274A23F07F4313623B68DA68244B92
:1019E0005A613B68DA68224BDA60214B224A1A605E
:1019F00039E01F4AFB68D3611D4B00221A613B6826
:101A00009B7F002B08D13B681833194C1846FFF711
:101A100017FC0346A36323E03B681B7F1B061C46A1
:101A20003B6818331846FFF70BFC03461B0203F410
:101A300078031C433B6818331846FFF701FC034644
:101A40005B0103F47C431C433B6818331846FFF7E3
:101A5000F7FB0346DB0003F0F803054A23439363D7
:101A6000034B064A1A6000BF1437BD4690BD00BF45
:101A700000100052090001000102020001020300EF
:101A800080B582B000AF7860054A7B681A607B68D9
:101A90001846FFF7E1FB7B6818460837BD4680BD56
:101AA000A423029080B582B000AF78607868FFF719
:101AB000E7FF142178681DF0C6FB7B6818460837DD
:101AC000BD4680BD80B483B000AF78607B680022E3
:101AD0001A807B6800225A807B6800229A807B688B
:101AE0000022DA807B6818460C37BD465DF8047B1F
:101AF0007047000080B483B000AF7860044A7B6810
:101B0000136000BF0C37BD465DF8047B704700BF13
:101B10003C2B012480B483B000AF7860044A7B681A
:101B20001A607B6818460C37BD465DF8047B704729
:101B3000A414029080B582B000AF78607868FFF797
:101B4000E9FF042178681DF07EFB7B6818460837A2
:101B5000BD4680BD80B485B000AFF860B9607A60E2
:101B60003B600B4AFB681A60FB68BA685A60FB6806
:101B70007A689A60FB683A68DA60FB68BA691A6149
:101B8000FB6818461437BD465DF8047B704700BFFC
:101B90009414029080B483B000AF7860044A7B68EC
:101BA0001A607B6818460C37BD465DF8047B7047A9
:101BB0009414029080B582B000AF78607868FFF727
:101BC000E9FF142178681DF03EFB7B681846083752
:101BD000BD4680BD80B483B000AF7860396000BF7F
:101BE0000C37BD465DF8047B704780B483B000AF0E
:101BF0007860396000BF0C37BD465DF8047B7047E4
:101C000080B483B000AF7860396000BF0C37BD4648
:101C10005DF8047B704780B483B000AF78600B46FA
:101C2000FB7000BF0C37BD465DF8047B704780B485
:101C300083B000AF786000BF0C37BD465DF8047B11
:101C4000704780B483B000AF786000BF0C37BD46EA
:101C50005DF8047B7047000080B483B000AF78600B
:101C6000044A7B681A607B6818460C37BD465DF8ED
:101C7000047B70476C14029080B582B000AF78602E
:101C80007868FFF7E9FF042178681DF0DCFA7B68CB
:101C900018460837BD4680BD80B483B000AF786079
:101CA000044A7B681A607B6818460C37BD465DF8AD
:101CB000047B7047C828029080B582B000AF78607E
:101CC0007868FFF7E9FF082178681DF0BCFA7B68A7
:101CD00018460837BD4680BD80B483B000AF786039
:101CE0000B46FB7000BF0C37BD465DF8047B7047A8
:101CF00080B483B000AF786039607B683A6803F5E0
:101D000096731068516803C300BF0C37BD465DF879
:101D1000047B704780B483B000AF7860044A7B686E
:101D20001A607B6818460C37BD465DF8047B704727
:101D30005414029080B582B000AF78607868FFF7E5
:101D4000E9FF042178681DF07EFA7B6818460837A1
:101D5000BD4680BD80B483B000AF78607B68002250
:101D60001A807B6800225A807B6800229A807B68F8
:101D70000022DA807B6800221A817B6800225A8167
:101D80007B6800229A817B6800229A737B681846E0
:101D90000C37BD465DF8047B704780B582B000AF5C
:101DA00078607B681846FFF7D5FF7B6800221A61D0
:101DB0007B6800229A827B6818460837BD4680BD42
:101DC00080B483B000AF7860074A7B681A607B6894
:101DD00000225A607B6800229A607B6818460C37A4
:101DE000BD465DF8047B70472411029080B584B035
:101DF00000AFF860B9607A603B604A4AFB681A60DD
:101E0000FB68BA685A60FB687A689A60FB683A684F
:101E1000DA60FB6800221A61FB6800225A61FB68E5
:101E200000229A61FB681C331846FFF7B6FFFB6877
:101E300000229A63FB680022DA63FB6800221A64BE
:101E4000FB6800225A64FB68002283F84820FB6884
:101E5000012283F84920FB68002283F84A20FB68AE
:101E60000022DA64FB6850331846FFF72BFEFB684C
:101E7000012283F86420FB68002283F86520FB6858
:101E8000002283F86620FB68012283F86720FB6844
:101E9000002283F86820FB68002283F86920FB6831
:101EA000002283F86A20FB68002283F86B20FB681D
:101EB000002283F86C20FB6800221A67FB6800226E
:101EC00083F87520FB68002283F87620FB680122E6
:101ED00083F87720FB68012283F87820124AFB6898
:101EE0001360124A3B8B1380114ABB8B1380114B3A
:101EF00000221A700D4B1A880F4B1A800C4B1A884F
:101F00000E4B1A803A8BBB8B9A4234BF01230023BD
:101F1000DBB21A46FB6883F83420FB68184610379A
:101F2000BD4680BD081F0290E02A0124D42A012466
:101F3000D62A0124D82A0124DA2A0124DC2A012401
:101F400080B582B000AF7860054A7B681A607B6814
:101F50001846FFF781FE7B6818460837BD4680BDEE
:101F6000A829029080B582B000AF78607868FFF74A
:101F7000E7FF4FF49C7178681DF065F97B6818469F
:101F80000837BD4680BD80B582B000AF7860786804
:101F900000F004F800BF0837BD4680BD80B582B0B0
:101FA00000AF78607B68D3F83C31002B0FD07B68A2
:101FB000D3F83C217B68D3F83C311B680C331B6899
:101FC000104698470346002B01D0012300E0002370
:101FD000002B0ED07B68D3F83C217B68D3F83C31D2
:101FE0001B6808331B68104698477B680022C3F8BB
:101FF0003C2100BF0837BD4680BD000080B582B0DF
:1020000000AF7860054A7B681A607B681846FFF766
:1020100097FF7B6818460837BD4680BD10140290B4
:1020200080B582B000AF78607868FFF7E7FF4FF4C3
:10203000A07178681DF007F97B6818460837BD461F
:1020400080BD000080B582B000AF7860084A7B6830
:102050001A607B6803F5A073184600F0FFFA7B68EE
:102060001846FFF7CBFF7B6818460837BD4680BD92
:10207000B413029080B582B000AF78607868FFF743
:10208000E1FF4FF4AC7178681DF0DDF87B6818460D
:102090000837BD4680BD000080B582B000AF7860D3
:1020A000054A7B681A607B681846FFF7CBFF7B68A0
:1020B00018460837BD4680BD7013029080B582B0C7
:1020C00000AF78607868FFF7E7FF4FF4AC7178688D
:1020D0001DF0B9F87B6818460837BD4680BD80B54D
:1020E00082B000AF78607B68D3F85431184603F0B3
:1020F000A3FE7B6818460EF081F900BF0837BD4685
:1021000080BD80B582B000AF786039603B6818460A
:1021100001F0A8FE00BF0837BD4680BD80B586B07F
:1021200002AFF860B9607A603B60F868BB69009301
:102130003B687A68B968FFF70DFD044AFB681A60CE
:10214000FB6818461037BD4680BD00BF5C13029087
:1021500080B500AF014800F075F980BD640100242E
:1021600080B500AF124B1B78BFF35B8FDBB203F07F
:102170000103002B0CBF01230023DBB2002B13D083
:102180000B481DF062F80346002B14BF0123002307
:10219000DBB2002B08D0074800F068F804481DF0B7
:1021A00060F805481DF09CF8024B184680BD00BF42
:1021B000BC040024640100245121009080B582B049
:1021C00000AF7860054A7B681A607B681846FFF7A5
:1021D000E1FC7B6818460837BD4680BD5C13029061
:1021E00080B582B000AF78607868FFF7E7FF142110
:1021F00078681DF028F87B6818460837BD4680BD12
:1022000080B582B000AF78607B6818460BF050F85C
:10221000034A7B681A607B6818460837BD4680BD54
:102220002813029080B582B000AF78607B681846B2
:102230000BF03EF8034A7B681A607B681846083743
:10224000BD4680BDF412029080B582B000AF7860C8
:102250007B6818460BF02CF8034A7B681A607B6891
:1022600018460837BD4680BDC012029090B585B0B3
:1022700002AF786078687B6803F114017B6803F132
:102280002C027B6803F5F4747B6803F5FE730093FE
:102290002346FFF743FF184A7B681A607B681433B4
:1022A0001846FFF7ADFF7B682C331846FFF7BAFFDF
:1022B0007B6803F5F4731846FFF7C6FF7B6803F5E8
:1022C000FE707B6803F555737A68194603F0F0FADF
:1022D0007B6803F55573184603F0A0FD7A687B68A8
:1022E00003F5FE7319461046FFF70BFF7B6818468F
:1022F0000C37BD4690BD00BFAC12029080B586B0D1
:1023000002AFF860B9607A603B60F868BB8B0193FC
:102310003B8B00933B687A68B968FFF767FD044A16
:10232000FB681A60FB6818461037BD4680BD00BFC9
:10233000B814029080B582B000AF78607B68184610
:10234000FFF73EFD034A7B681A607B681846083732
:10235000BD4680BDFC10029080B586B002AFF8602B
:10236000B9607A603B60F868BB8B01933B8B00934C
:102370003B687A68B968FFF7C1FF064AFB681A60D4
:10238000FB687C331846FFF7D5FFFB68184610370B
:10239000BD4680BD7C11029080B483B000AF7860F0
:1023A000044A7B681A607B6818460C37BD465DF8A6
:1023B000047B70476411029080B582B000AF7860F2
:1023C0007B681846FFF7E8FF034A7B681A607B6862
:1023D00018460837BD4680BD4C11029090B585B0B7
:1023E00002AF01F0F5FA044601F0FCFA0346194683
:1023F0000023009300230022204611F015F909481C
:10240000FFF778FB002003F0B1F9074811F04EF810
:10241000FFF7A6FE78600548FEF700FD00BF0C3709
:10242000BD4690BD5C11002408000024601100240A
:1024300080B500AF0248FEF70FFD00BF80BD00BFB2
:102440006011002480B582B000AF7860104A7B68CC
:102450001A607B6803F5FE731846FFF71DFE7B6864
:1024600003F5F473184600F027F87B682C33184600
:1024700000F044F87B681433184600F063F87B687A
:102480001846FFF79BFE7B6818460837BD4680BD9F
:10249000AC12029080B582B000AF78607868FFF728
:1024A000D1FF4FF4567178681CF0CDFE7B6818465A
:1024B0000837BD4680BD000080B582B000AF7860AF
:1024C000054A7B681A607B6818460AF0EFFE7B6855
:1024D00018460837BD4680BDC012029080B582B054
:1024E00000AF78607868FFF7E7FF142178681CF088
:1024F000AAFE7B6818460837BD4680BD80B582B00D
:1025000000AF7860054A7B681A607B6818460AF05D
:10251000CDFE7B6818460837BD4680BDF412029098
:1025200080B582B000AF78607868FFF7E7FF4FF4BE
:10253000DE7178681CF087FE7B6818460837BD4658
:1025400080BD000080B582B000AF7860054A7B682E
:102550001A607B6818460AF0A9FE7B68184608379F
:10256000BD4680BD2813029080B582B000AF786070
:102570007868FFF7E7FF182178681CF064FE7B6835
:1025800018460837BD4680BD80B582B000AF786080
:10259000054A7B681A607B681846FFF77DFB7B68FD
:1025A00018460837BD4680BD3C3A029080B582B0DF
:1025B00000AF78607868FFF7E7FF782178681CF053
:1025C00042FE7B6818460837BD4680BD80B584B0A2
:1025D00002AF786039607B68012B19D13B684FF6F8
:1025E000FF72934214D11848FFF7E6FE1748FEF732
:1025F000E3FE174814F09CF84FF4887301934FF4EE
:10260000F0730093104B124A10491248FFF7A4FED2
:102610007B68002B13D13B684FF6FF7293420ED1BB
:102620000C48FEF707FD0C4800F03AF80848FFF7A1
:10263000ABFF0648FEF7EAFE0348FEF79BF900BF32
:102640000837BD4680BD00BFC0040024C404002478
:10265000E4100024601100240800002480B582B03A
:1026600000AF7860054A7B681A607B681846FFF700
:1026700051FB7B6818460837BD4680BDF8130290B1
:1026800080B582B000AF78607868FFF7E7FF10216F
:1026900078681CF0D8FD7B6818460837BD4680BDB9
:1026A00080B582B000AF7860054A7B681A607B68AD
:1026B0001846FFF72FFA7B6818460837BD4680BDDD
:1026C000DC15029080B582B000AF78607868FFF7C3
:1026D000E7FF042178681CF0B6FD7B6818460837D0
:1026E000BD4680BD80B483B000AF7860012318463A
:1026F0000C37BD465DF8047B704780B483B000AFF3
:1027000078600C2318460C37BD465DF8047B704793
:1027100080B483B000AF78600B467B807A88134624
:102720005B0013449B0008337A68134418460C3747
:10273000BD465DF8047B704780B483B000AF78601D
:102740000B467B807A8813465B0013449B0008335A
:102750007A68134418460C37BD465DF8047B704711
:1027600080B483B000AF7860012318460C37BD46B3
:102770005DF8047B704780B483B000AF78604FF49D
:10278000DA7318460C37BD465DF8047B704780B499
:1027900083B000AF78600B467B807B884FF4DA72A1
:1027A00002FB03F308337A68134418460C37BD461E
:1027B0005DF8047B704780B483B000AF78600B464F
:1027C0007B807B884FF4DA7202FB03F308337A686C
:1027D000134418460C37BD465DF8047B704780B43F
:1027E00083B000AF7860012318460C37BD465DF812
:1027F000047B704780B483B000AF78601023184624
:102800000C37BD465DF8047B704780B483B000AFE1
:1028100078600B467B807B881B0108337A68134401
:1028200018460C37BD465DF8047B704780B483B012
:1028300000AF78600B467B807B881B0108337A6889
:10284000134418460C37BD465DF8047B704780B5CD
:1028500082B000AF78607B685B687A68D26852109B
:1028600099187B68DB6803F00103002B02D17B68B9
:102870009B680AE07B685B687A68D26852101344F0
:102880001B687A68926813441B680846984700BF23
:102890000837BD4680BD80B483B000AF78607B68E8
:1028A0005B68002B10D07B689B68002B07D17B688E
:1028B000DB6803F00103002B01D1012300E00023BA
:1028C000012B01D0012300E0002318460C37BD4640
:1028D0005DF8047B704780B500AF4FF6FF710120B3
:1028E000FFF774FE80BD80B500AF4FF6FF7100208A
:1028F000FFF76CFE80BD80B582B000AF78607B686A
:102900001B6818331B687868984700BF0837BD46B6
:1029100080BD80B483B000AF78607B6893F8663088
:102920000133DAB27B6883F8662000BF0C37BD46FE
:102930005DF8047B7047000080B483B000AF0346AD
:10294000FB80B7F90630002B0BDBFB8803F01F027E
:102950000749B7F906305B09012000FA02F241F895
:10296000232000BF0C37BD465DF8047B704700BFD5
:1029700000E100E080B483B000AF0346FB80B7F90C
:102980000630002B12DBFB8803F01F020A49B7F95F
:1029900006305B09012000FA02F2203341F82320BF
:1029A000BFF34F8F00BFBFF36F8F00BF00BF0C3767
:1029B000BD465DF8047B704700E100E080B483B061
:1029C00000AF03463960FB80B7F90630002B0ADB05
:1029D0003B68DAB20C49B7F906301201D2B20B44A7
:1029E00083F800230AE03B68DAB20849FB8803F069
:1029F0000F03043B1201D2B20B441A7600BF0C370E
:102A0000BD465DF8047B704700E100E000ED00E0AA
:102A1000B0B582B000AF78607B6818460BF01EF945
:102A20007D687B681B684C331C680DF005FE03460F
:102A300019462846A04778687B681B6870331C6875
:102A40000023044A4FF05041A04700BF0837BD465D
:102A5000B0BD00BF00FC03D080B582B000AF78608D
:102A600009215A20FFF7AAFF09215820FFF7A6FFE6
:102A700000BF0837BD4680BD80B582B000AF78602A
:102A80005A20FFF759FF5820FFF756FF00BF0837BD
:102A9000BD4680BD80B582B000AF78605A20FFF798
:102AA00069FF5820FFF766FF00BF0837BD4680BDAD
:102AB00080B483B000AF7860114BDB689BB2C3F386
:102AC0000A039BB2013B9AB20E4B1A800C4B1B6956
:102AD0009BB2C3F30A039BB2013B9AB20A4B1A8022
:102AE000084B1A88064B1A64054B5B6B044A43F08B
:102AF0000103536300BF0C37BD465DF8047B70478C
:102B000000100050E8110024EA11002480B483B0C2
:102B100000AF7860034B9B6A18460C37BD465DF8E2
:102B2000047B70478410005080B483B000AF78609D
:102B30003960064A3B689362054B01225A6200BF26
:102B40000C37BD465DF8047B704700BF8410005011
:102B50000010005080B586B000AF786039607B68A7
:102B6000396818460AF08EFD204B0022C3F88420F5
:102B7000BFF34F8F00BF1D4BD3F880307B617B6963
:102B80005B0BC3F30E033B617B69DB08C3F30903F3
:102B9000FB603B695A0143F6E0731340FA68920701
:102BA00012491343C1F87432FB685A1EFA60002BB5
:102BB00014BF01230023DBB2002B00D0E9E73B69FF
:102BC0005A1E3A61002B14BF01230023DBB2002BF5
:102BD00000D0D9E7BFF34F8F00BFBFF36F8F00BFA7
:102BE00000BF00BF1837BD4680BD00BF00ED00E04C
:102BF00080B584B000AFF860B9607A603B60F86877
:102C00003B687A68B9680AF072FE034618461037C6
:102C1000BD4680BD80B487B000AF7860214B0022F4
:102C2000C3F88420BFF34F8F00BF1E4BD3F8803012
:102C30007B617B695B0BC3F30E033B617B69DB0844
:102C4000C3F30903FB603B695A0143F6E073134089
:102C5000FA68920713491343C1F87432FB685A1E8D
:102C6000FA60002B14BF01230023DBB2002B00D03D
:102C7000E9E73B695A1E3A61002B14BF0123002388
:102C8000DBB2002B00D0D9E7BFF34F8F00BFBFF3FB
:102C90006F8F00BF00BF00BF1C37BD465DF8047BCF
:102CA000704700BF00ED00E080B487B000AF7860EF
:102CB000214B0022C3F88420BFF34F8F00BF1E4B6F
:102CC000D3F880307B617B695B0BC3F30E033B6100
:102CD0007B69DB08C3F30903FB603B695A0143F6D8
:102CE000E0731340FA68920713491343C1F8743232
:102CF000FB685A1EFA60002B14BF01230023DBB2CD
:102D0000002B00D0E9E73B695A1E3A61002B14BF43
:102D100001230023DBB2002B00D0D9E7BFF34F8F94
:102D200000BFBFF36F8F00BF00BF00BF1C37BD46A1
:102D30005DF8047B704700BF00ED00E080B582B015
:102D400000AF78601A4B1B6C1A4A128893420CBF72
:102D500001230023DBB2002B17D0174B1B88194629
:102D6000786805F043FAFDF7EBFE03461846FFF7D7
:102D7000D0FDFEF7EDF9FDF7E3FE034618460BF034
:102D8000F5F90020FDF718FE0EE00A4B1B881946E6
:102D9000786805F02BFA0020FDF74CFEFDF7D0FE19
:102DA00003461846FFF7A7FD00BF0837BD4680BDA4
:102DB00000100050E8110024EA110024014900200D
:102DC00009F09EBDFD0F009008B5012008F049F9FB
:102DD000FBE7000030B59DB04C22002109A81CF093
:102DE000EDFA2022002101A81CF0E8FA022005F0EB
:102DF000A9FA00230093264BDA6A22F00102DA6274
:102E0000DB6A03F001030093224B9A6922F44042EB
:102E100042F480429A619A6902F440420092009A18
:102E20009A699404FCD51C4A012405210825936A5B
:102E300009A823F0030343F0020393624FF48033A5
:102E4000A022CDE909430223CDE91412CDE91233C2
:102E5000042218930023CDE91622CDE919531B93C0
:102E600005F094FA3F2003234FF480622146CDE918
:102E700001034FF4006301A8CDE903354023CDE9F8
:102E80000533CDE9072305F0B9FD1DB030BD00BF06
:102E90000004005800480258004402580622024923
:102EA000024807F00FBF00BFEC1100247C2D012465
:102EB00080B5A4B0102200214FF0105917A80125A9
:102EC0001CF07CFA002403F0DDFED74B17A81B276B
:102ED000ADF85C500326CDE91893D44B1A9303F058
:102EE000F3FE4FF0104317A88DF867401893ADF824
:102EF0006A408DF85D508DF8647003F0E5FE0223A2
:102F000017A88DF868408DF85D301A238DF867603A
:102F10008DF8643040F20113ADF86A3003F0D4FE4E
:102F20004FF0504317A88DF867401893ADF86A40EA
:102F300004248DF85D608DF864708DF8685003F09E
:102F4000C3FE182317A88DF85D408DF864308DF806
:102F500067608DF86A5003F0B7FE204603F0A2FECA
:102F6000B34B5A6912F4003211D1BFF34F8FBFF344
:102F70006F8FC3F85022BFF34F8FBFF36F8F5A6923
:102F800042F400325A61BFF34F8FBFF36F8FA84AEC
:102F9000536913F4803323D1C2F88430BFF34F8FC9
:102FA000D2F8803043F6E074C3F3C900C3F34E3364
:102FB0005B0103EA0406014646EA81750139C2F85D
:102FC0006052F9D2203B13F1200FF2D1BFF34F8FA3
:102FD000536943F480335361BFF34F8FBFF36F8F57
:102FE00003F092FDFFF7F6FE62B61422002117A847
:102FF00000241CF0E3F98F4B80218F48D3F8E020A8
:10300000012603254FF0040842F480624FF4047750
:103010004FF005094FF4806AC3F8E020D3F8E020B0
:1030200002F480620092009AD3F8E02042F040025D
:10303000C3F8E020D3F8E02002F040020192019AA8
:10304000D3F8E02042F48072C3F8E020D3F8E02007
:1030500002F480720292029AD3F8E02042F0100249
:10306000C3F8E020D3F8E02002F010020392039AA4
:10307000D3F8E02042F40072C3F8E020D3F8E02057
:1030800002F400720492049AD3F8E02042F008029D
:10309000C3F8E020D3F8E02002F008020592059A78
:1030A000D3F8E02042F02002C3F8E020D3F8E0207B
:1030B00002F020020692069AD3F8E02042F0800245
:1030C000C3F8E020D3F8E02002F080020792079ACC
:1030D000D3F8E02042F00102C3F8E020D3F8E0206A
:1030E00002F001020892089AD3F8E02042F00202AE
:1030F000C3F8E0200022D3F8E03003F00203099384
:10310000099B04F077FB01224FF400514B4804F077
:1031100071FB01224A48114604F06CFB0022042195
:10312000484804F067FB01220421474804F062FB91
:10313000802317A94048CDE91736CDE9194404F09A
:10314000CDF94FF4005317A93C481A951996CDE9CB
:10315000173604F0C3F917A93948CDE91766CDE948
:10316000194404F0BBF917A93648CDE91786CDE913
:10317000194404F0B3F917A93348CDE91786CDE90E
:10318000196504F0ABF93148314B84800360066265
:10319000304DC0E9054403F0BFFD342221460AA8A2
:1031A0001CF00CF93422214617A81CF007F92A4B11
:1031B00027222A2140F20A20AC862C6185F836406D
:1031C000C5E900340823C5E905230B23C5E9071326
:1031D00040F21B13C5E9090340F21D132846C5E957
:1031E0000B73C5E9024404F009FF4FF4F072FF21AC
:1031F0004FF488730227284615930A94ADF8584077
:103200008DF85A40CDE90B24CDE90F14CDE91342D6
:103210000AA92246CDE90D37CDE911A904F0B9FF7D
:10322000324617A9284619E01200000301000101E7
:1032300000ED00E000440258000C02580020025843
:103240000028025800000258002402580C2E0124C5
:10325000004C0258382E0124001000504D4DADF89E
:103260008C408DF88E40CDE91744CDE91944CDE965
:103270001B44CDE91D4ACDE91F94CDE9214404F05A
:1032800088FF454B2846EC65C5E91147C5E913445D
:10329000C5E91544C5E90034C5E9027403F0F4FF3B
:1032A000314628463D4D04F0B9F83D483D4B4FF0BE
:1032B000100C4FF4006E17A984621797C0E900360E
:1032C0004023C0E904C34FF4C073C0E906344FF48F
:1032D0008053C0E908E30723C0E90248CDE9183864
:1032E000CDE91A39CDE91C7706F026FC204603F01B
:1032F000B1F9204603F0F8F9DFF8C8804FF4E13364
:1033000028462C61C5E900830C23C5E90244C5E9C0
:103310000534C5E90744C5E9096407F038FC2146CE
:10332000284607F037FD2146284607F057FD284676
:1033300007F015FDFDF7C9F9FFF7B0FD1A4B17AA05
:1033400003F108051868083353F8041C1446AB420F
:1033500003C42246F6D118680F2299889B79206011
:10336000A18017A9A3710A230C4807F07EFB07F080
:1033700003FE0E4A00210E4807F02AFE0D4B0E4AAE
:10338000002118600D4807F023FE0D4B186007F070
:1033900005FEFEE7182F0124001000527C2D0124A9
:1033A000E02E0124404100526C1502908C150290D1
:1033B000CF060090302E0124B0150290C92D009048
:1033C000142F01240048004070B5114C114E2546C1
:1033D00010490F481CF0E6FB70B90F4B2A780C49D6
:1033E0001A706A780D485A7001220D4BBDE8704082
:1033F0001A60062207F066BC102200211CF0B2FC05
:10340000314604F8010B00201CF0CCFBE4E700BFC0
:10341000EC110024883F02903C1200247C2D0124F2
:10342000342E01240268034B9A4201D103F09ABB67
:10343000704700BF00100040704700000A4B82B088
:103440000F216FF00100D3F8F42042F00202C3F81C
:10345000F4200022D3F8F43003F002030193019B1F
:1034600002B003F0BBBB00BF00440258026882B048
:10347000094B9A420DD1A3F50063D3F8E02042F442
:103480000022C3F8E020D3F8E03003F400230193D6
:10349000019B02B0704700BF004C02580F4B07B5AC
:1034A00002689A4217D10E4B05215A20D3F8D42036
:1034B00042F01002C3F8D4200022D3F8D43003F035
:1034C00010030193019B03F089FB5A2003B05DF8C0
:1034D00004EB03F0B5BB03B05DF804FB0010005231
:1034E0000044025870B5BAB004461422002106A860
:1034F0001BF064FFBC2200210BA81BF05FFF2268B9
:10350000484B9A4240F08B804FF0005305215320E6
:103510000B93A023CDE914130223CDE916334FF406
:103520000063CDE9180300230BA8CDE91A3305F099
:10353000EBFC08B1FFF780FF3B4B022400250E2671
:10354000D3F8E42006A9394842F00802C3F8E42081
:10355000D3F8E42002F008020192019AD3F8E020A7
:1035600042F48062C3F8E020D3F8E02002F48062E5
:103570000292029AD3F8E02042F48072C3F8E0206D
:10358000D3F8E02002F480720392039AD3F8E0208B
:1035900042F40072C3F8E020D3F8E02002F4007295
:1035A0000492049AD3F8E02042F08002C3F8E020AD
:1035B000D3F8E0300A9603F080030593059BFC23C3
:1035C000CDE90854CDE9063403F088FF4DF203231A
:1035D00006A917480A96CDE90634CDE9085403F048
:1035E0007DFF4FF6FB7306A912480A96CDE9063413
:1035F000CDE9085403F072FF4FF4007306A90E489A
:103600000A96CDE90634CDE9085403F067FF582047
:103610002A46052103F0E2FA582003F011FB3AB0E4
:1036200070BD00BF0010005000440258002802582E
:103630000020025800240258001C025810B5B6B0F1
:1036400004461422002102A81BF0B8FEBC2200216F
:1036500007A81BF0B3FE22681E4B9A4238D1022302
:1036600007A807930023249305F04EFC08B1FFF749
:10367000E3FE194B002402A91848D3F8E82042F4CD
:103680008022C3F8E820D3F8E82002F480220092D8
:10369000009AD3F8E02042F00202C3F8E0204FF491
:1036A0004062D3F8E03003F002030193019B022350
:1036B000CDE902230723CDE90444069303F00EFF6E
:1036C00027202246052103F089FA272003F0B8FAC3
:1036D00036B010BD004800400044025800040258B3
:1036E000F0B5B7B01422002102A81BF067FE2F4BE3
:1036F0001C68002C57D10122214608A81A60B82264
:103700001BF05CFE4FF0807307A81894079305F038
:10371000FBFB08B1FFF790FE254B0227002603258F
:10372000D3F8D4200C2402A9224842F48052C3F8D2
:10373000D420D3F8D430069403F480530193019B32
:103740004FF68373CDE90465CDE9023703F0C6FE79
:1037500048F2331302A918480694CDE90237CDE99F
:10376000046503F0BBFE4CF2037302A913480694F0
:10377000CDE90237CDE9046503F0B0FE4FF63F0313
:1037800002A90F480694CDE90237CDE9046503F09C
:10379000A5FEE02302A90B480694CDE90237CDE946
:1037A000046503F09BFE37B0F0BD00BFF8110024A4
:1037B000004402580010025800180258000C025829
:1037C00000140258001C025808B5134B1A6812BBAB
:1037D00001224FF6837111481A60114AD2F8D43091
:1037E00023F48053C2F8D43003F05EFF48F2331163
:1037F0000C4803F059FF4CF203710B4803F054FFDF
:103800004FF63F01094803F04FFFE0210848BDE8AB
:10381000084003F049BF08BDF4110024001002580D
:103820000044025800180258000C025800140258B4
:10383000001C02580F2810B504468AB002D9012096
:103840000AB010BD01460022362003F0C7F9362029
:1038500003F0F6F9184B694602A81C60174BD3F821
:10386000E82042F01002C3F8E820D3F8E83003F073
:1038700010030193019B05F02DFA079BC3B905F0D6
:1038800005FA0F4C0F4B236040F2E733E3600E4B19
:10389000B0FBF3F001380023606020462361A36091
:1038A00006F00CFB0028CAD1204606F0B3F9C7E7A2
:1038B00005F0ECF94000E4E7480000240044025819
:1038C000CC2F01240010004040420F007047FEE75B
:1038D000FEE7FEE7FEE77047014806F049BB00BF80
:1038E0007C2D0124014806F0D3B900BFCC2F012460
:1038F000014804F0F1BB00BF382E0124014803F059
:1039000002BD00BF182F01240120704708B51BF02D
:10391000FBFC162303604FF0FF3008BD08B51BF019
:10392000F3FC16230360FEE770B50E46144600252F
:10393000A54201DB204670BDAFF300807055013514
:10394000F6E770B50E4614460025A54201DB204679
:1039500070BD705D0135AFF30080F6E74FF0FF30CA
:1039600070474FF4005300204B60704701207047B0
:103970000020704708B50A4B0246196809B9094981
:1039800019601868694602448A4206D91BF0BCFCDB
:103990000C2303604FF0FF3008BD1A60FCE700BF46
:1039A000FC110024F030012480B582B000AF7860B3
:1039B0000B467B807B88002B04D101F04FFF034630
:1039C0001B6800E0002318460837BD4680BD000094
:1039D00080B400AF024B1846BD465DF8047B7047CB
:1039E000E815029080B400AF08231846BD465DF884
:1039F000047B704780B483B000AF7860044A7B6872
:103A00001A607B6818460C37BD465DF8047B70472A
:103A10004418029080B582B000AF78607868FFF7F4
:103A2000E9FF102178681BF00EFC7B681846083708
:103A3000BD4680BD90B587B000AF78600B467B80F7
:103A40007B88002B01D1002310E000233B61002381
:103A5000FB737B681B6808331C6807F10F0307F1D1
:103A6000100279887868A04778617B6918461C370E
:103A7000BD4690BD80B483B000AF78607B685B8941
:103A800018460C37BD465DF8047B704780B483B0A0
:103A900000AF78607B689B8918460C37BD465DF89F
:103AA000047B704780B483B000AF78607B689B88EC
:103AB00018460C37BD465DF8047B704780B483B070
:103AC00000AF78607B689A887B689B799BB21344CF
:103AD0009BB218460C37BD465DF8047B704780B436
:103AE00083B000AF78607B68DB79C3F30603DBB299
:103AF00018460C37BD465DF8047B704780B483B030
:103B000000AF78607B68DB79C3F3C013DBB2184683
:103B10000C37BD465DF8047B7047000080B582B06D
:103B200000AF7860054A7B681A607B681846FFF72B
:103B300061FF7B6818460837BD4680BDFC2A0290AD
:103B400080B582B000AF78607868FFF7E7FF182192
:103B500078681BF078FB7B6818460837BD4680BD47
:103B600080B582B000AF7860054A7B681A607B68D8
:103B70001846FFF7D3FF7B6818460837BD4680BD5F
